:020000040800F2
:10000000000D0020E9010008A11B00086919000883
:100010009D1B00088B0700088121000800000000DC
:100020000000000000000000000000009D0100082A
:100030008F07000800000000A31B0008A51B000894
:10004000030200080302000803020008030200087C
:10005000030200080302000803020008030200086C
:10006000030200080302000803020008030200085C
:10007000030200080302000803020008030200084C
:10008000030200080302000803020008030200083C
:10009000030200080302000803020008030200082C
:1000A00003020008B91C000803020008030200084C
:1000B000030200080302000803020008030200080C
:1000C00003020008030200080302000803020008FC
:1000D00003020008030200080302000803020008EC
:1000E00003020008030200080302000803020008DC
:1000F00003020008030200080302000803020008CC
:1001000003020008030200080302000803020008BB
:1001100003020008030200080302000803020008AB
:10012000030200080302000803020008030200089B
:10013000030200080302000803020008030200088B
:10014000030200080302000803020008030200087B
:10015000030200080302000803020008030200086B
:10016000030200080302000803020008030200085B
:100170000302000803020008030200080000000058
:100180000302000803020008DFF80CD000F07CFA3C
:100190000048004729320008000D002072B61EF00A
:1001A000040F0CBFEFF30880EFF3098020E9F00F94
:1001B000EFF31482734620E90C001EF0040F08BF11
:1001C000854603F02FFAB0E8FC0F9E4682F31488B0
:1001D000BFF36F8F1EF0040F0CBF80F3088880F30D
:1001E000098862B670470000064880470648004705
:1001F000FEE7FEE7FEE7FEE7FEE7FEE7FEE7FEE7D7
:10020000FEE7FEE7551C0008890100082DE9F05FB4
:100210000546002092469B46884606468146402475
:100220001BE0284641464746224600F065F8534603
:100230005A46C01A914110D311461846224600F082
:100240004CF82D1A67EB01084F4622460120002189
:1002500000F043F817EB00094E41201EA4F1010401
:10026000DFDC484631462A464346BDE8F09FD2B21D
:1002700001E000F8012B491EFBD270470022F6E78F
:1002800010B513460A4604461946FFF7F0FF20460C
:1002900010BD10B5002200E0521C835C8C5CA342B0
:1002A00001D1002BF8D1D8B2E1B2401A10BD30B55F
:1002B0000B46014600202022012409E021FA02F524
:1002C0009D4205D303FA02F5491B04FA02F52844BE
:1002D000151EA2F10102F1DC30BD202A04DB203A18
:1002E00000FA02F1002070479140C2F1200320FA89
:1002F00003F3194390407047202A04DB203A21FA87
:1003000002F00021704721FA02F3D040C2F120022E
:1003100091400843194670472DE9FE4F804681EA17
:100320000300C00F0C46009021F0004123F000456F
:10033000B8EB0200A94105D24046214690461C4632
:100340000B46024623F00040104347D0270DC7F369
:100350000A00C3F30A510290401A019040286BDA58
:10036000C3F3130040F4801B0098924620B1002391
:10037000D2EB030A63EB0B0B01985946C0F1400224
:100380005046FFF7AAFF06460D4650465946019AC9
:1003900000F08CF910EB08006141002487EA11524B
:1003A00084EAE7731A4340D0009A62B3019A012AA3
:1003B0004FEA075215DC001B61EB02014FF00042CF
:1003C00002EA0752CDE90042001C41F58011324695
:1003D0002B4600F08CF903B0BDE8F08F4046214673
:1003E000F9E7001B61EB0201001C41F580130018C6
:1003F0005B412018A2F5001747EB030140EAD570D6
:10040000B6196D4111E06D084FEA360645EAC07530
:100410004FEA0752001B61EB0201001C41F58011FD
:1004200049084FEA30000019514132462B4603B0CB
:10043000BDE8F04F00F04CB90098012240000023C5
:10044000D0EB020263EBE073009821464FEAE074C0
:10045000B8EB000061EB0401E9E783F000435BE7E0
:1004600081F0004158E72DE9FE4F81EA030404F0D2
:10047000004421F0004100944FF0000B23F00043B2
:1004800050EA01045ED052EA03045BD0C3F30A547D
:10049000C1F30A552C44A4F2F3340194A0FB025496
:1004A000C1F3130141F48011C3F3130343F4801328
:1004B00001FB024400FB034E840A970A44EA81547C
:1004C00047EA8357A4FB076802958D0A05FB078559
:1004D0004FEA932C04FB0C542705029D4FEA065863
:1004E00047EA1637B5EB08056EEB070C870E920E40
:1004F00047EA811742EA8312A7FB0201B6EB0B0120
:1005000064EB00042B0D43EA0C335E1844EB1C50E3
:10051000DA465146E7FB0201C5F313044FEA0B33F9
:1005200043EA14534FEA0432019C43EA0603A4F160
:100530000C040294009CCDE900B400F0D8F803B09C
:10054000BDE8F08F00200146F9E72DE9F04D81EA82
:10055000030404F0004B21F0004514464FF0000A5C
:1005600023F0004150EA050220D054EA01021DD0D8
:10057000C5F30A570246C5F31303C1F31300C1F3D1
:100580000A5640F4801543F48013A7EB0608101BAD
:10059000D64608F2FD3873EB050002D308F10108D6
:1005A00001E092185B41B8F1000F03DA0020014628
:1005B000BDE8F08D00204FF48011064684460EE021
:1005C000171B73EB050705D3121B63EB05030643EB
:1005D0004CEA010C49084FEA300092185B4150EA9E
:1005E0000107EDD152EA030012D082EA040083EA47
:1005F0000501084305D0101BAB4106D201220023A0
:1006000006E000224FF0004302E06FF001025310B9
:100610001AEB06004CEB085110EB0A0041EB0B0102
:10062000BDE8F04D00F054B8C1F30A52C1F3130114
:1006300040F2FF3341F480119A4202DA0020014671
:10064000704740F233439A42A2F2334202DC5242F4
:10065000FFF752BEFFF741BE30B5041E71F1000432
:1006600004DB4FF00044404264EB0101141E73F1BF
:10067000000405DB1C464FF00043524263EB0403C9
:10068000994208BF904230BD064C074D06E0E06835
:1006900040F0010394E8070098471034AC42F6D3C9
:1006A000FFF776FD84390008A4390008202A06DB0C
:1006B000CB17203A41FA02F043EAE07306E041FA30
:1006C00002F3D040C2F1200291400843194670471E
:1006D00010B5141E73F1000408DA401C41F100014A
:1006E00092185B411A4301D120F0010010BD2DE9A1
:1006F000F04D92469B4611B1B1FA81F202E0B0FA98
:1007000080F220329046FFF7E8FD04460F4640EAAB
:100710000A0041EA0B0153465A46084313D01146DA
:1007200053EA010019D0C8F140025046FFF7E4FD3A
:1007300005460E46504659464246FFF7CEFD084351
:1007400005D0012004E020463946BDE8F08D0020A8
:10075000054346EAE0762C4337430A986305E40AEA
:10076000A0EB08000022FD0A44EA47540A3002D5F3
:1007700000200146E9E7010510196941DDE9084556
:1007800000196941BDE8F04DA2E700BFFEE77047E0
:1007900000F07EF90446214618A003F063F81C4BD4
:1007A0001B680BB9012300E00023194C1A46236093
:1007B000184BB3F8543099B2164B186D00F062F92B
:1007C00000BF00BF00BF00BF00BFBFF34F8F00BF1F
:1007D00000BF00BF1048006800F4E0600F49084304
:1007E000001D0D49086000BF00BF00BFBFF34F8F61
:1007F00000BF00BF00BF00BF00BFFDE748414C5F26
:100800004350555F52657365742025640D0A0000DE
:10081000DC0000202C0000200CED00E00000FA05B8
:1008200010B500F035F9044621460BA003F01AF884
:100830000E4B1B680BB9012300E000230B4C1A463A
:1008400023600B4BB3F8443099B2094B186C00F09D
:1008500019F930BF10BD000048414C5F4350555F4F
:10086000536C6565702025640D0A0000D8000020D7
:100870002C000020F8B502460B460025002400207D
:100880000021DCE0012606FA01F51E6806EA0504EF
:10089000AC4273D15E68022E02D05E68122E13D174
:1008A000CF0802F1200656F827004E07F70E0F2654
:1008B000BE40B0434F07FF0E1E69BE403043CF0815
:1008C00002F1200646F8270010684F000326BE40BC
:1008D000B0431E7906F003064F00BE40304310605F
:1008E0005E68012E08D05E68022E05D05E68112E6B
:1008F00002D05E68122E13D190684F000326BE40CE
:10090000B0434F00DE68BE4030439060506801261F
:100910008E40B0431E79C6F300168E4030435060BF
:10092000D0684F000326BE40B0434F009E68BE40D3
:100930003043D0605E6806F08056B6F1805F7DD1AE
:1009400000BF00260096404E366846F480463E4F73
:100950003E603E46366806F48046009600BF00BF03
:100960003A4E8F0856F827008E07370F0F26BE40E5
:10097000B043374EB24202D1002624E05EE0354E4D
:10098000B24201D101261EE0334EB24201D102260D
:1009900019E0324EB24201D1032614E0304EB24289
:1009A00001D104260FE02F4EB24201D105260AE004
:1009B0002D4EB24201D1062605E02C4EB24201D1A5
:1009C000072600E008268F073F0FBE4030431F4E2A
:1009D0008F0846F82700264E3068A0435E6806F46C
:1009E0008036B6F5803F00D12043214E3060361D61
:1009F0003068A0435E6806F40036B6F5003F00D1CB
:100A000020431B4E361D3060361D3068A0435E68A3
:100A100006F48016B6F5801F00D12043144E083628
:100A20003060361D3068A0435E6806F40016B6F5E7
:100A3000001F00D120430E4E0C363060491C102997
:100A4000FFF420AFF8BD00004438024008380140F0
:100A5000000002400004024000080240000C024076
:100A6000001002400014024000180240001C024026
:100A7000003C0140024613690B400BB1012000E02D
:100A8000002070470AB1816101E00B048361704767
:100A9000014800687047000000000020034800681B
:100AA00003490978084401490860704700000020A4
:100AB0000800002010B50D48006840F400700B4994
:100AC00008600846006840F48060086008460068D6
:100AD00040F480700860032000F014F9002000F05A
:100AE00007F800F09DF8002010BD0000003C024017
:100AF00070B504460E4800784FF47A71B1FBF0F0FF
:100B00000C490968B1FBF0F5284600F071FC08B10A
:100B1000012070BD102C07D200222146501E00F08B
:100B2000B3F80548046001E00120F2E70020F0E797
:100B3000080000200C0000200400002070B51C48B4
:100B40000068002832D0FFF7A3FF4FF47A71B0FBA2
:100B5000F1F201FB12050024B5F5FA7F00D800E0A0
:100B60000124E2B2134BB3F8443099B2114B186C24
:100B7000FFF788FFE2B20F4BB3F8543099B20D4B38
:100B8000186DFFF77FFFE2B20A4BB3F8643099B2F9
:100B9000084B186EFFF776FFE2B2064BB3F87430DD
:100BA00099B2044B186FFFF76DFF00BF70BD0000D6
:100BB000C80000202C00002070B505460C4604F04B
:100BC000010445B1E2B2154BB3F8443099B2134B6E
:100BD000186CFFF757FF022D08D3E2B20F4BB3F8A2
:100BE000543099B20D4B186DFFF74CFF032D08D30D
:100BF000E2B20A4BB3F8643099B2084B186EFFF7B3
:100C000041FF042D08D3E2B2044BB3F8743099B21B
:100C1000024B186FFFF736FF70BD00002C0000205C
:100C200008B500BF002000900E48006840F48040E6
:100C30000C4908600846006800F48040009000BF3E
:100C400000BF00BF00200090081F006840F08050E7
:100C5000091F08600846006800F08050009000BF3F
:100C600000BF08BD4438024001460846002809DBA1
:100C700000F01F0301229A4043099B0003F1E02387
:100C8000C3F8002100BF70472DE9F05F80460D4694
:100C90001646002701F08CFA074639462A463346A5
:100CA00001F00700C0F1070ABAF1040F02D94FF0B2
:100CB000040A01E0C0F1070AD14600F1040ABAF1C2
:100CC000070F02D24FF0000A01E0A0F1030AD44658
:100CD0004FF0010A0AFA09FAAAF1010A0AEA020A1D
:100CE0000AFA0CFA4FF0010B0BFA0CFBABF1010BFB
:100CF0000BEA030B4AEA0B042146404601F060FA76
:100D0000BDE8F09F00BF00F00702064B19684FF6E0
:100D1000FF031940044B0B4343EA0221014B1960C6
:100D200000BF70470CED00E00000FA0570B5044606
:100D30000D460CB9012070BD5848006800F00F0046
:100D4000A84209D255490D700846006800F00F000E
:100D5000A84201D00120EEE7207800F0020002282E
:100D60001DD1207800F00400042805D14C4800680B
:100D700040F4E0504A490860207800F00800082854
:100D800005D14748006840F4604045490860444840
:100D9000006820F0F000A16808434149086020780D
:100DA00000F00100A8B36068012807D13C4808386A
:100DB0000068C0F34040B8B90120BCE76068022871
:100DC00002D06068032807D1354808380068C0F3AE
:100DD000406048B90120AEE7314808380068C0F3E8
:100DE000400008B90120A6E72D48006820F0030064
:100DF000616808432A490860FFF74AFE064609E091
:100E0000FFF746FE801B41F28831884202D9032059
:100E100091E707E02248006800F00C006168B0EB41
:100E2000810FEDD11D48006800F00F00A84209D9DC
:100E30001A490D700846006800F00F00A84201D062
:100E4000012078E7207800F00400042807D1144836
:100E5000006820F4E050E1680843114908602078F8
:100E600000F00800082808D10D48006820F4604010
:100E7000216940EAC1000A49086000F03DF80849CC
:100E80000968C1F30311074A515CC840064908606C
:100E90000020FFF72DFE00204DE70000003C02403F
:100EA000083802406C3900080C0000200148006836
:100EB000704700000C00002000B5FFF7F7FF044961
:100EC0000968C1F38221034A515CC84000BD00009B
:100ED000083802407C39000800B5FFF7E7FF0449F5
:100EE0000968C1F34231034A515CC84000BD0000AB
:100EF000083802407C3900082DE9F047002400251D
:100F00000026A1462548006800F00C0020B1042806
:100F100005D008283AD105E0DFF8849039E0DFF801
:100F2000849036E01D48001F006800F03F041B4815
:100F3000001F006800F4800078B11A481749091FA3
:100F40000968C1F38811A0FB017001462246002305
:100F50003846FFF75BF905460EE011480F49091FB7
:100F60000968C1F38811A0FB0170014622460023E5
:100F70003846FFF74BF905460848001F0068C0F3E4
:100F80000140401C4600B5FBF6F902E0DFF8109086
:100F900000BF00BF4846BDE8F087000008380240A7
:100FA0000024F40040787D01F8B504460CB9012016
:100FB000F8BD207800F00100002874D0F9480068DE
:100FC00000F00C0004280DD0F648006800F00C007A
:100FD000082813D1F348001F006800F48000B0F522
:100FE000800F0BD1EF4808380068C0F3404000285C
:100FF00059D06068002856D10120D9E700BF606849
:10100000B0F5803F08D1E7480838006840F48030E8
:10101000E449083908601EE06068B0F5A02F0DD1E2
:10102000E0480838006840F48020DE49083908604C
:101030000846006840F4803008600CE0D948083861
:10104000006820F48030D7490839086008460068F5
:1010500020F48020086000BF606890B1FFF718FDA1
:10106000054606E0FFF714FD401B642801D9032064
:101070009EE7CC4808380068C0F340400028F1D013
:1010800011E0FFF705FD054606E0FFF701FD401BF7
:10109000642801D903208BE7C24808380068C0F3F0
:1010A00040400028F1D1207800F0020002285FD1F2
:1010B000BC48006800F00C0058B1BA48006800F065
:1010C0000C0008281CD1B748001F006800F48000FD
:1010D000B0B9B44808380068C0F3400020B1E068F7
:1010E000012801D0012063E7AE480838006820F0ED
:1010F000F800216940EAC100AA490839086037E0D0
:10110000E06800B30120A8490860FFF7C1FC05466C
:1011100006E0FFF7BDFC401B022801D9032047E78A
:10112000A04808380068C0F340000028F1D09D486E
:101130000838006820F0F800216940EAC1009949A8
:101140000839086014E0002097490860FFF7A0FC08
:10115000054606E0FFF79CFC401B022801D903204E
:1011600026E7904808380068C0F340000028F1D115
:10117000207800F0080008282CD16069A8B101206F
:101180008A490860FFF784FC054606E0FFF780FC0B
:10119000401B022801D903200AE782486C3000680E
:1011A000C0F340000028F1D014E000207F4908601F
:1011B000FFF76EFC054606E0FFF76AFC401B0228BD
:1011C00001D90320F4E677486C300068C0F3400092
:1011D0000028F1D1207800F00400042870D1002606
:1011E00070483830006800F0805090B900BF00208F
:1011F00000906C483830006840F0805069493831C0
:1012000008600846006800F08050009000BF00BFF2
:1012100001266748006800F48070B0B9644800682F
:1012200040F4807062490860FFF732FC054606E032
:10123000FFF72EFC401B022801D90320B8E65C48CA
:10124000006800F480700028F2D000BFA068012878
:1012500008D154486830006840F0010051496831B5
:1012600008601DE0A06805280DD14E486830006870
:1012700040F004004B49683108600846006840F0BF
:10128000010008600CE047486830006820F0010069
:101290004449683108600846006820F0040008608E
:1012A00000BFA068A8B1FFF7F3FB054609E0FFF710
:1012B000EFFB401B41F28831884202D9032077E6D8
:1012C00026E0384868300068C0F340000028EED0BF
:1012D00013E0FFF7DDFB054608E0FFF7D9FB401BF5
:1012E00041F28831884201D9032061E62D486830F7
:1012F0000068C0F340000028EFD1012E07D1294833
:101300003830006820F0805026493831086000BF2E
:10131000A069B8B32348006800F00C0008285ED02C
:10132000A069022846D100201F490866FFF7B0FBDC
:10133000054606E0FFF7ACFB401B022801D903205D
:1013400036E6184808380068C0F340600028F1D13C
:10135000D4E907010843616A40EA81110122A06AC9
:10136000C2EB500041EA00412C20005D41EA0060E0
:101370000C49091F086001200B490866FFF788FB2C
:10138000054607E02DE0FFF783FB401B022801D94B
:1013900003200DE6034808380068C0F340600028C9
:1013A000F1D01EE00838024000004742800E47425C
:1013B0000070004000200C490866FFF769FB0546F5
:1013C00006E0FFF765FB401B022801D90320EFE58B
:1013D00006480068C0F340600028F2D101E0012017
:1013E000E6E50020E4E50000000047420038024046
:1013F00070B504462546681EB0F1807F01D30120F8
:101400000FE0681E4FF0E02148610F214FF0FF30E0
:1014100000F0D6FE00204FF0E0218861072008612F
:10142000002070BD7047704710B5024600BF92F8AB
:101430003C00012801D1022010BD012082F83C00AF
:1014400000BF022082F83D0010684368106884687D
:1014500023F070030868034324F0800448680443C1
:101460001068436010688460012082F83D0000BF6E
:10147000002082F83C0000BF00BFDDE710B5044645
:101480000CB9012010BD94F83D0028B9002084F863
:101490003C00204600F00CF8022084F83D00211D9D
:1014A000206800F011FC012084F83D000020E9E7ED
:1014B00038B504460E492068884217D100BF002085
:1014C00000900C48006840F001000A490860084696
:1014D000006800F00100009000BF00BF002211462C
:1014E0001920FFF7D1FB1920FFF7BEFB38BD000024
:1014F000000001404438024001460868C06840F0DE
:1015000001000B68D8600868806800F00702062AAE
:1015100005D00868006840F001000B6818600020E2
:1015200070472DE9F04104460D4600BF94F83C0099
:10153000012802D10220BDE8F081012084F83C009E
:1015400000BF022084F83D002068866826F07706F8
:1015500026F47F46206886602868502833D00CDC4B
:10156000202850D004DC00284BD0102851D149E06D
:10157000302849D040284CD139E060282DD070283F
:1015800007D0B0F5805F03D0B0F5005F41D10DE02A
:1015900040E0D5E902136A68206800F001FC206889
:1015A000866846F077062068866033E0D5E9021346
:1015B0006A68206800F0F4FB2068806840F480408E
:1015C0002168886026E0EA686968206800F0FCFB12
:1015D0005021206800F0EFFB1CE0EA686968206891
:1015E00000F005FC6021206800F0E5FB12E0EA68ED
:1015F0006968206800F0E8FB4021206800F0DBFB10
:1016000008E000BF00BF00BF2968206800F0D3FBDE
:1016100000E000BF00BF012084F83D0000BF0020B3
:1016200084F83C0000BF00BF85E7704710B5044652
:1016300020680069C0F34000D8B12068C068C0F3DA
:101640004000B0B16FF002002168086101202077EE
:101650002068806900F0030018B12046FFF7E5FF1D
:1016600005E0204600F0ADF8204600F0ABF8002081
:10167000207720680069C0F38000D8B12068C06876
:10168000C0F38000B0B16FF004002168086102204F
:1016900020772068806900F4407018B12046FFF779
:1016A000C4FF05E0204600F08CF8204600F08AF8E0
:1016B0000020207720680069C0F3C000D8B12068FE
:1016C000C068C0F3C000B0B16FF0080021680861C5
:1016D000042020772068C06900F0030018B120467C
:1016E000FFF7A3FF05E0204600F06BF8204600F06E
:1016F00069F80020207720680069C0F30010D8B195
:101700002068C068C0F30010B0B16FF0100021680D
:101710000861082020772068C06900F4407018B183
:101720002046FFF782FF05E0204600F04AF82046F9
:1017300000F048F8002020772068006900F00100E0
:1017400058B12068C06800F0010030B16FF00100AE
:1017500021680861204600F036F820680069C0F36F
:10176000C01058B12068C068C0F3C01030B16FF02D
:101770008000216808612046FFF754FE2068006958
:10178000C0F3801058B12068C068C0F3801030B139
:101790006FF0400021680861204600F019F82068C9
:1017A0000069C0F3401058B12068C068C0F3401011
:1017B00030B16FF02000216808612046FFF733FE4A
:1017C00010BD7047704710B5044601F011FF10BD01
:1017D000704710B504460CB9012010BDA06900B1D6
:1017E00000E000BF94F8390028B9002084F83800E0
:1017F000204600F027F8242084F839002068C068CB
:1018000020F400502168C860204600F005FB2068E5
:10181000006920F49040216808612068406920F048
:101820002A00216848612068C06840F4005021689F
:10183000C8600020E063202084F8390084F83A0072
:101840000020CAE710B586B00446142101A8FEF7AF
:1018500015FD37492068884231D100BF0020009033
:101860003448006840F010003249086008460068BB
:1018700000F01000009000BF00BF00BF00200090EB
:101880002C481438006840F001002A4914390860D7
:101890000846006800F00100009000BF00BF4FF450
:1018A000C060019002200290012003900320049068
:1018B0000720059001A92048FEF7DCFF36E01F490C
:1018C0002068884232D100BF002000901948001FD4
:1018D000006840F480201749091F08600846006826
:1018E00000F48020009000BF00BF00BF00200090E7
:1018F00010481438006840F002000E49143908609E
:101900000846006800F00200009000BF00BF4FF4DE
:101910004060019002200290012003900320049077
:101920000720059001A90648FEF7A4FF06B010BDE8
:1019300000100140443802400000024000480040CE
:101940000004024070B50446064A02EB0412928875
:1019500091B2044A02EB04121068FFF78BF80546B7
:10196000284670BD2C00002000BFFEE700B587B000
:10197000142102A8FEF782FC00BF0020019051480C
:10198000006840F080004F4908600846006800F099
:101990008000019000BF00BF00BF002001900846FA
:1019A000006840F0020008600846006800F002008D
:1019B000019000BF00BF00BF0020019008460068F2
:1019C00040F0010008600846006800F00100019046
:1019D00000BF00BF00BF002001900846006840F033
:1019E000040008600846006800F00400019000BF91
:1019F00000BF00BF002001900846006840F48070DE
:101A000008600846006800F48070019000BF00BFC5
:101A100000BF002001900846006840F020000860E8
:101A20000846006800F02000019000BF00BF00BF22
:101A3000002001900846006840F001000860084658
:101A4000006800F00100019000BF00BF00224FF4C9
:101A5000F8611D48FFF716F84FF40070029000205F
:101A60000390049002A91948FEF704FF4FF40060A8
:101A7000029000200390049002A91348FEF7FAFE9A
:101A80004FF40050029000200390049002A91048E7
:101A9000FEF7F0FE0120029000200390049002A9BE
:101AA0000C48FEF7E7FE4FF4F86002900120039027
:101AB00000200490059002A90348FEF7DBFE07B062
:101AC00000BD0000303802400014024000200240F7
:101AD000000802400000024000B587B000200390DB
:101AE00004900590069001900290124812490860F7
:101AF000A720486000211048816040F2E731C160B2
:101B00000021016141618161FFF7B8FC4FF4805011
:101B1000039003A90848FFF704FD002001900290FC
:101B200001A90548FFF780FC0348FFF7E5FC07B073
:101B300000BD000000000140BC04002010B50948B1
:101B4000094908604FF4E13048600021064881608F
:101B5000C16001610C21416100218161C161FFF718
:101B600038FE10BD001001403C04002010B50948AB
:101B7000094908604FF4164048600021064881601A
:101B8000C16001610C21416100218161C161FFF7E8
:101B900020FE10BD004800407C04002000BFFEE78E
:101BA0007047704710B5FEF779FF10BD00B593B0D0
:101BB000302107A8FEF762FB142102A8FEF75EFBA6
:101BC00000BF002001902148006840F080501F496C
:101BD00008600846006800F08050019000BF00BF18
:101BE00000BF002001901A48006840F48040184966
:101BF00008600846006800F48040019000BF00BF04
:101C0000012007900004089002200D9041050E91DC
:101C100019210F914FF4A871109102211191042103
:101C2000129107A8FFF7C0F90F200290022003903D
:101C3000002004904FF4A05005904FF4805006907F
:101C4000052102A8FFF772F813B000BD403802402A
:101C5000007000401448006840F4700012490860A9
:101C60001248006840F001001049086000200F4948
:101C7000083108600D4800680D4908400B490860AC
:101C80000C48091D0860081F006820F48020091F07
:101C90000860002005490C3108604FF000600249DF
:101CA000803908607047000088ED00E0003802408D
:101CB000FFFFF6FE1030002410B50248FFF7B6FC17
:101CC00010BD0000BC04002010B50268294B9842EA
:101CD0000ED0B0F1804F0BD0274B984208D0274B45
:101CE000984205D0264B984202D0264B984203D109
:101CF00022F070024B681A431E4B984220D0B0F17C
:101D0000804F1DD01C4B98421AD01C4B984217D0C4
:101D10001B4B984214D01B4B984211D01A4B98423F
:101D20000ED01A4B98420BD0194B984208D0194B41
:101D3000984205D0184B984202D0184B984203D1D4
:101D400022F44072CB681A4322F080034C6943EAC4
:101D5000040202608B68C3620B688362054B984281
:101D600002D0084B984201D10B6903630123436100
:101D700010BD0000000001400004004000080040C9
:101D8000000C0040000401400040014000440140BC
:101D90000048014000180040001C004000200040A6
:101DA00030B50C46816821F47F4142EA0325254382
:101DB0002943816030BD0A46816821F0700142F0FC
:101DC000070319438160704730B50B461446026A19
:101DD000056A25F001050562816921F0F00141EAFB
:101DE000041122F00A021A438161026230BD30B54B
:101DF0000B461446056A25F0100505628169026AE2
:101E000021F4704141EA043122F0A00242EA0312B7
:101E10008161026230BD00002DE9F0410446206876
:101E2000006920F44050E168084321680861216995
:101E3000A068084361690843E16940EA0105206838
:101E4000C06849F20C61884328432168C860206853
:101E5000406920F44070A169084321684861E06945
:101E6000B0F5004F7ED1C4492068884203D0C349F1
:101E7000206888425DD1FFF72FF800EBC00101EB2D
:101E8000001061684900B0FBF1F06421B0FBF1F093
:101E90000601FFF721F800EBC00101EB00106168BB
:101EA0004900B0FBF1F7FFF717F800EBC00101EBB9
:101EB000001061684900B0FBF1F06421B0FBF1F063
:101EC00000EBC00101EB0010A7EB8000322101EB19
:101ED000C0006421B0FBF1F000F0F80006EB400612
:101EE000FEF7FAFF00EBC00101EB0010616849004A
:101EF000B0FBF1F7FEF7F0FF00EBC00101EB0010C3
:101F000061684900B0FBF1F06421B0FBF1F000EB37
:101F1000C00101EB0010A7EB8000322101EBC000F3
:101F20006421B0FBF1F000F00700304421688860C4
:101F300020E1FEF7C1FF00EBC00101EB001061687A
:101F40004900B0FBF1F06421B0FBF1F00601FEF7AF
:101F5000B3FF00EBC00101EB001061684900B0FB6A
:101F6000F1F700E045E0FEF7A7FF00EBC00101EB51
:101F7000001061684900B0FBF1F06421B0FBF1F0A2
:101F800000EBC00101EB0010A7EB8000322101EB58
:101F9000C0006421B0FBF1F000F0F80006EB400651
:101FA000FEF78AFF00EBC00101EB001061684900F9
:101FB000B0FBF1F7FEF780FF00EBC00101EB001072
:101FC00061684900B0FBF1F06421B0FBF1F000EB77
:101FD000C00101EB0010A7EB8000322101EBC00033
:101FE0006421B0FBF1F000F0070030442168886004
:101FF000C0E061492068884203D060492068884277
:102000005CD1FEF769FF00EBC00101EB00106168D5
:102010008900B0FBF1F6FEF75FFF00EBC00101EBBA
:10202000001061688900B0FBF1F06421B0FBF1F0B1
:1020300000EBC00101EB0010A6EB8000322101EBA8
:1020400000106421B0FBF1F000F0F006FEF744FF51
:1020500000EBC00101EB001061688900B0FBF1F0FA
:102060006421B0FBF1F006EB0016FEF735FF00EB44
:10207000C00101EB001061688900B0FBF1F7FEF7C9
:102080002BFF00EBC00101EB001061688900B0FB81
:10209000F1F06421B0FBF1F000EBC00101EB0010A6
:1020A000A7EB8000322101EB00106421B0FBF1F0BE
:1020B00000F00F003044216888605BE0FEF7FCFE12
:1020C00000EBC00101EB001061688900B0FBF1F684
:1020D000FEF7F2FE00EBC00101EB00106168890021
:1020E000B0FBF1F06421B0FBF1F000EBC00101EBBB
:1020F0000010A6EB8000322101EB00106421B0FB40
:10210000F1F000F0F006FEF7D7FE00EBC00101EBA6
:10211000001061688900B0FBF1F06421B0FBF1F0C0
:1021200006EB0016FEF7C8FE00EBC00101EB001045
:1021300061688900B0FBF1F7FEF7BEFE00EBC0015D
:1021400001EB001061688900B0FBF1F06421B0FB85
:10215000F1F000EBC00101EB0010A7EB8000322191
:1021600001EB00106421B0FBF1F000F00F003044EF
:1021700021688860BDE8F081001001400014014032
:1021800000BFFEE77CB5044600201D461646002928
:102190000BD0491ECDE90041044B6A462946304622
:1021A00000F0F4F8009A002111707CBDBB2A0008F1
:1021B00002480068C0F30220704700000CED00E008
:1021C00010B5002804DB0A07130E054A135406E075
:1021D0000A07140E034A00F00F031B1FD45410BD4E
:1021E00000E400E018ED00E002E008C8121F08C19A
:1021F000002AFAD170477047002001E001C1121F88
:10220000002AFBD1704700002DE9FF5F82B000215A
:10221000DDE90430020DDDF840B0034318D044F688
:102220001050A2F2FF3242431514119801281FD01A
:10223000A5EB0B00401C5FEA000A4FF000064E4F72
:10224000DFF83891B046504615D5CAF1000413E0C6
:10225000119801244AA3012801D16FEA0B010298C9
:10226000119AC0E90031C0E9024206B0BDE8F09F12
:10227000CBF10000DFE704460021404A491842EB59
:102280000450CDE9001012E0E00707D032463B468B
:1022900040464946FEF7E7F88046894632463B46C7
:1022A00010461946FEF7DFF806460F466410002C6C
:1022B000EAD1DDE90401DDE90023BAF1000F06DA15
:1022C000FEF7D1F842464B46FEF7CDF805E0FEF7A3
:1022D0003CF942464B46FEF738F904460E460022CA
:1022E000284BFEF7B9F903D84FF0FF30014607E05D
:1022F0000022254B20463146FEF70EF8FEF794F9F2
:10230000102409E0002C0ADB0A220023FDF77EFFDF
:10231000039B30321A55641E50EA0102F2D1641C4C
:10232000039AC4F111031444119A012A03D0012223
:1023300008430DD10AE0084304D000204FF0110BF0
:10234000119072E7A3EB0B056D1E0DE05B4504DDFC
:102350004FF0000205F1010504E003DA4FF000023E
:10236000A5F10105002AECD002981199C0E90231CB
:10237000C0E9004579E70000000014400000F03F8C
:10238000300000000000F0430000E03F2DE9FF4F67
:1023900095B09B468946064600250FE2252877D151
:1023A00000242746F84A0121059400E0044316F86A
:1023B000013F203B01FA03F01042F7D130782A2880
:1023C00011D06FF02F033078A0F13002092A16D80F
:1023D000059A44F0020402EB820203EB420210442D
:1023E000761C0590EFE759F8042B0592002A03DAD2
:1023F000504244F40054059044F00204761C3078B6
:102400002E2816D116F8010F44F004042A280DD006
:102410006FF02F023078A0F13003092B09D807EBB9
:10242000870302EB4303C718761CF3E759F8047BD4
:10243000761C30786C280FD006DC4C2817D0682822
:102440000DD06A2814D104E0742810D07A280FD156
:102450000DE044F400140AE044F4801401E044F474
:1024600040147278824202D104F58014761C761CE6
:10247000307866280BD013DC582877D009DC002888
:1024800075D04528F6D04628F4D047281AD19DE1CA
:1024900018E0632835D0642879D0652812D195E1F9
:1024A000702873D008DC6728F1D069286FD06E28B7
:1024B0000DD06F2806D1B5E073282CD0752875D0C3
:1024C000782874D05A46179990476D1C75E1C4F36B
:1024D0000250022809D003280DD0D9F80010042892
:1024E0000DD00D6009F1040967E1D9F80010EA1771
:1024F000C1E90052F6E7D9F800100D80F2E70D703F
:10250000F0E719F8041B8DF8001000208DF8010089
:10251000EA46012003E059F804AB4FF0FF306107B1
:102520004FF0000102D40DE008F101018846B942E4
:102530000FDA8045F8DB1AF808100029F4D108E01A
:1025400008F1010188468142FADB1AF808100029D7
:10255000F6D105985B46A0EB080721463846179A46
:1025600000F094FA284400EB080507E04DE029E16B
:102570000DE01AF8010B5A4617999047B8F1010877
:10258000F7D25B4621463846179A13E142E00A2209
:102590000092C4F302524FF0000A022A08D059F800
:1025A00004CB032A4FEAEC710AD00DE029E02AE0BF
:1025B00009F1070121F00702F2E802C1914609E0A2
:1025C0000FFA8CFC4FEAEC71042A03D14FFA8CFC11
:1025D0004FEAEC71002907DA0A460021DCF1000C11
:1025E00061EB02012D2202E0220504D52B228DF899
:1025F0000420012203E0E20701D02022F7E7904601
:1026000059E00A2102E010220DE010214FF0000AEB
:1026100000910BE010224FF0000A44F00404082758
:10262000009203E008224FF0000A0092C4F3025225
:10263000022A05D059F804CB0021032A08D009E06A
:1026400009F1070121F00702F2E802C1914605E015
:102650001FFA8CFC042A01D10CF0FF0C4FF000088B
:10266000220728D5702806D0009B83F0100353EA78
:102670000A0305D00EE040228DF80420012208E074
:102680005CEA010206D030228DF804208DF80500A6
:1026900002229046009B83F0080353EA0A030AD102
:1026A0005CEA010201D1620705D530228DF80420D1
:1026B0004FF001087F1E582804D034A003900EA8C4
:1026C00002900DE036A0F9E753466046009AFDF708
:1026D0009DFD84460398825C0298401E0290027021
:1026E0005CEA0100F0D1029806A9081A00F1200A5C
:1026F000600702D524F4803400E00127574502DD4D
:10270000A7EB0A0000E0002000EB0A01009005980A
:102710004144401A0590E00306D45B462146179ACF
:10272000059800F0B3F90544002706E001A85A46D1
:10273000C05D179990476D1C7F1C4745F6DBE00391
:102740000CD55B462146179A059800F09FF9054481
:1027500004E030205A46179990476D1C0099481E96
:1027600000900029F5DC08E0029802995A460078AA
:10277000491C0291179990476D1CBAF10001AAF10A
:10278000010AF1DC65E10000092801003031323333
:10279000343536373839616263646566000000009D
:1027A0003031323334353637383941424344454687
:1027B0000000000000F058F90544761C307800282D
:1027C0007FF4ECAD19B02846BDE8F08F620700D465
:1027D000062709F1070222F0070CFCE80223E14674
:1027E00003F000485FEA080C02D00FF2702C0DE0F5
:1027F0005FEA045C02D50FF2682C07E05FEAC47C54
:1028000002D00FF2602C01E0AFF2700C4FF0FF38F5
:1028100023F00043CDF850C065280CD006DC4528D5
:1028200009D046281DD047283DD13DE0662818D064
:1028300067287ED138E00021112F01DB112000E054
:10284000781CCDE9000106A90EA8FFF7DDFCDDE943
:102850000F010E9A03910021009207F1010A0491E1
:102860004DE04FF000400097CDE9011006A90EA8F9
:10287000FFF7CAFCDDE90F0203920E9B11990022BB
:10288000DDF80CA00093049211B9791C00EB010A49
:10289000B7EB0A0004D4C0F1FF3007F1010A04903D
:1028A000AAEB0700019044E0012F00DA0127002184
:1028B000112F01DD112000E03846CDE9000106A905
:1028C0000EA8FFF7A1FCDDE90F010E9A039100218C
:1028D00004910092BA4621070CD40399514500DABD
:1028E0008A46BAF1010F05DD009AAAF10101515C97
:1028F000302908D0B84202DA10F1040F06DA0121BB
:10290000CDE9011015E0AAF10101E9E7002805DC95
:10291000049901440491AAEB000102E0411C5145D5
:1029200000DD8A460499401A401C01904FF0004097
:102930000290200704D40198504501DBCDF80480B3
:1029400000208DF84F0002980DF14F07B0F1004FB5
:1029500025D02B200E9002984FF0020800280CDAA8
:10296000404202902D200E9007E00A210298FDF7C8
:102970009EFC3031029007F8011DB8F10001A8F16A
:102980000108F2DC02980028EFD1791E0E98087039
:10299000307800F0200040F0450007F8020D12A842
:1029A000C01B00F107081498007800B1012000EB6B
:1029B0000A01019801EBE07105984144401A401E5C
:1029C0000590E00306D45B462146179A059800F06F
:1029D0005DF805441498007818B15A461799904745
:1029E0006D1CE00324D55B462146179A059800F03C
:1029F0004DF805441CE00498002807DBDDE90301DD
:102A0000884203DD0098405C179901E01799302057
:102A10005A469047049805F10105401C049001981E
:102A2000401E019004D12E205A46179990476D1CE4
:102A3000BAF10001AAF1010ADDDC05E017F8010B8B
:102A40005A46179990476D1CB8F10001A8F101088A
:102A5000F4DC5B462146179A0598ABE62D00000092
:102A60002B000000200000002DE9F0410446002565
:102A70001E461746880404D405E039462020B04796
:102A80006D1C641EF9D52846BDE8F0812DE9F041A2
:102A9000044600251E469046C80301D5302700E0B5
:102AA0002027880404D505E041463846B0476D1C10
:102AB000641EF9D52846BDE8F0814A68002A06D090
:102AC0000A68531C0B6010704868401E48607047CD
:102AD00010B5FDF7DDFF0446214602A000F0C2FE5E
:102AE00010BD0000416C61726D2046697265204026
:102AF00025640D0A0000000010B501E000F0B6F9F1
:102B000000F012F80028F9D0054800684068C4B207
:102B100004480068401C03490860204610BD0000BE
:102B20007C0400200401002002480068006800F0D6
:102B3000200070477C04002010B5FDF7BBFFFFF7B5
:102B400035F8FEF713FFFEF7F9FFFFF70FF8FEF772
:102B5000C3FF10BD10B5044601E000F087F900F096
:102B600011F80028F9D0054800684460044800685E
:102B7000401C03490860204610BD00007C04002072
:102B80000801002002480068006800F080007047DB
:102B90007C040020704710B5FDF77AFF0A21B0FBD6
:102BA000F1F201FB120068B9002000F015FA0120D3
:102BB00000F012FA022000F00FFA032000F00CFAE5
:102BC00000F0A2F910BD10B500F054F900F042FA7F
:102BD00010BD000070B5FDF75BFF2F490860084687
:102BE00000682E490860FFF7EEFF4EE0FDF750FF4A
:102BF000294908602A480068012801D1FDF79EFF95
:102C0000284C2948006898B3FDF742FF4FF47A71C9
:102C1000B0FBF1F201FB120560692E1A6420B6FBCD
:102C2000F0F00521B0FBF1F201FB120005281DD2E6
:102C3000DFE800F003080D12170001210420FDF762
:102C4000BBFF13E000210120FDF7B6FF0EE00021DD
:102C50000220FDF7B1FF09E000210320FDF7ACFFE2
:102C600004E000210420FDF7A7FF00BF00BF00BF64
:102C7000FFF791FF0848006808490968401A41F2C7
:102C80008831884200DD04E000BF08480068002861
:102C9000ACD000BF70BD0000CC000020D0000020F0
:102CA000C800002060020020C4000020D4000020E2
:102CB00010B509E000F0E0FA05480068032803DDDC
:102CC00000200349086000E0F4E700BF10BD0000E9
:102CD000E000002000B540220849094800F060F8F3
:102CE0000849094800F0AEFA0849094800F0AAFA74
:102CF0000849094800F0A6FA00BD00003C03002086
:102D00007C030020C1380008B73800083D390008AE
:102D100065390008093100080132000810B509E0E2
:102D200000F04CFC05480068032803DD002003493F
:102D3000086000E0F4E700BF10BD0000FC000020C8
:102D400000B54FF4FA720021044800F00FFC4FF474
:102D50007A71034800F020FC00BD000069310008D2
:102D6000D12A000810B5FFF735FFFFF7A1FFFFF7E5
:102D7000D5FF10BD10B5FFF726FFFFF7ABFFFFF73C
:102D8000DFFF10BD10B5FFF7F5FF01E0FFF7EAFF29
:102D9000024800680028F9D010BD000000010020A2
:102DA000426001600023C360836070470146886809
:102DB000002801DC012070470020FCE70146D1E932
:102DC0000120904201DB012070470020FCE7000059
:102DD00070B504462046FFF7E9FF20B10CA000F0D3
:102DE00041FD002070BDE1682068455CE068401C42
:102DF0006168884204DBE068401C6168401A01E0B9
:102E0000E068401CE060A068401EA0602846E9E73A
:102E10006669666F20656D707479210070B504462F
:102E20000D462046FFF7CAFF18B10DA000F01AFDAD
:102E300070BDD4E9021008446168884205DBD4E91A
:102E4000021008446168401A02E0D4E90210084404
:102E500021680D54A068401CA06000BFE8E7000096
:102E60006669666F2066756C6C21000010B500F015
:102E7000F1FC10BD10B586B0142101A8FDF7FEF9D4
:102E8000002438E000BF002000901D4800681D4964
:102E900001EB041109684FF40032891A8A0A0121F2
:102EA000914008431649086008460068154901EB3F
:102EB000041109684FF40032891A8A0A01219140ED
:102EC0000840009000BF00BF0E4800EB04104068AF
:102ED00001900C4800EB041080680290094800EB58
:102EE0000410C0680390074901EB0411086801A9A8
:102EF000FDF7C0FC641C092CC4D306B010BD000053
:102F0000303802402C0000202DE9F041002656E028
:102F1000C6EBC6002C4901EB8004D4E90510451A24
:102F2000FDF7B6FD4FF47A71B0FBF1F201FB120729
:102F300036B1012E0ED0022E17D0032E3CD130E038
:102F4000A06830B1322D04D9B5F5FA7F01D2FDF772
:102F500067FC32E0A06838B1B5F5FA7F04D90020EB
:102F60001A490860FDF714FC27E0A06870B1322D03
:102F70000CD9B5F5FA7F09D21548006830B10120A7
:102F80001249086000201249086009E0A06838B1C1
:102F9000322D05D9B5F5FA7F02D201200C4908601F
:102FA0000BE0606810B101200A490860A06810B108
:102FB00000200849086000E000BF00BF761C032E17
:102FC000A6DDBDE8F08100000C020020C800002052
:102FD000C0000020C400002070B506463046F1173E
:102FE00006EB5171C910A6EBC101C1EBC101184A32
:102FF00002EB81040020A06060603046FEF7A2FC76
:103000000546E068A84203D000202061E56070BD5D
:103010002069401C2061042800D2F8E700202061CC
:10302000E560206880EA050108406060206868402B
:103030002840A0602560606810B1FDF729FD60613F
:10304000A06810B1FDF724FDA06100BFDFE700001C
:103050000C020020002006E00121C0EBC002034B5F
:1030600043F82210401C0828F6D370470C020020B9
:1030700070B506460C46032E01D0042E36D160688A
:103080000078A0F13005042D00DB002519A1A0680F
:10309000FDF7FFF8002805DB0120174941F825005E
:1030A000002070BD15A1A068FDF7F3F8002804DB2F
:1030B0000020114941F82500F3E711A1A068FDF7B0
:1030C000E8F8002811DBE06848B10EA1E068FDF7E0
:1030D000E0F820B90020084941F82500E1E7032085
:1030E000054941F825000020DBE700BF4FF0FF3025
:1030F000D7E700006F6E0000AC0300206F66000091
:10310000660000002100000070B5002427E015488B
:1031100050F82400012802D1204600F06AF8114836
:1031200050F8240010B9204600F05CF80D4850F823
:103130002400032812D1FDF7ABFC4FF47A71B0FBE9
:10314000F1F201FB1205B5F5FA7F03D2204600F03B
:1031500050F802E0204600F045F800BF641C042C43
:10316000D5DB70BDAC03002010B5FDF791FC044623
:1031700019480068201AB0F5FA6F2CDB1648046075
:1031800016480068A0B9012014490860002000F02A
:1031900030F8012000F02DF8022000F02AF803207A
:1031A00000F027F80E480068401C0D49086012E046
:1031B00000200A49086000F015F8012000F012F81C
:1031C000022000F00FF8032000F00CF8044800681B
:1031D000401C0349086010BDF8000020F4000020E6
:1031E000FC00002010B504460121204600F00AF83A
:1031F00010BD10B504460021204600F003F810BDB4
:103200000120704770B504460D46032C00DD0324F1
:10321000EAB2E01D0123834099B20248FDF732FC77
:1032200070BD00000014024010B5FFF785FCFFF7E9
:10323000A9FD002010BD0000014800687047000093
:10324000140000200A4A12680A2A00DB7047094A63
:10325000074B1B6842F83300054B1B6802EBC302A7
:103260005160034A1268521C014B1A6000BFEDE71F
:10327000E4000020EC02002010B50A4C09E02068B0
:1032800030B1606820B12068804708B1606880472D
:10329000083404480449096800EBC100A042EED894
:1032A00010BD0000EC020020E400002070B50446D0
:1032B0000B46154621460022002020E003E00026B0
:1032C0000E70491C521C0E78202E02D00E78092E4A
:1032D00001D19A42F3D39A4200D311E045F820106D
:1032E000401C01E0491C521C0E78202E04D00E78A0
:1032F000092E01D09A42F5D39A4200D300E0DDE7CF
:1033000000BF70BD10B5044632A000F0ABFA38A083
:10331000616D00F0A7FA3AA0216D00F0A3FA3CA07D
:10332000E16C00F09FFA3EA0A16C00F09BFA40A077
:10333000616C00F097FA42A0216C00F093FA44A06F
:10334000E16B00F08FFA46A0A16B00F08BFA2BA086
:1033500000F088FA46A0616B00F084FA48A0216B67
:1033600000F080FA4AA0E16A00F07CFA4CA0A16A61
:1033700000F078FA4EA0616A00F074FA50A0216A59
:1033800000F070FA52A0E16900F06CFA54A0A16953
:1033900000F068FA56A0616900F064FA17A000F026
:1033A00061FA57A0216900F05DFA5BA0E16800F0C6
:1033B00059FA5EA0A16800F055FA62A0616800F0B9
:1033C00051FA65A0216800F04DFA2046FFF7E2FBB4
:1033D00010BD00000D0A537461636B206672616D4D
:1033E000652055502D3E446F776E3A0A000000006C
:1033F00020505352203D2020253038580A0000002C
:1034000020504320203D2020253038580A0000005D
:10341000204C5220203D2020253038580A00000042
:1034200020523132203D2020253038580A0000003B
:1034300020523320203D2020253038580A0000003B
:1034400020523220203D2020253038580A0000002C
:1034500020523120203D2020253038580A0000001D
:1034600020523020203D2020253038580A0000000E
:1034700020723131203D2020253038580A000000CC
:1034800020723130203D2020253038580A000000BD
:1034900020723920203D2020253038580A000000B5
:1034A00020723820203D2020253038580A000000A6
:1034B00020723720203D2020253038580A00000097
:1034C00020723620203D2020253038580A00000088
:1034D00020723520203D2020253038580A00000079
:1034E00020723420203D2020253038580A0000006A
:1034F00020737020203D2020253038580A0000001D
:1035000020747261705F7870737220203D202025D6
:103510003038580A0000000020747261705F7370C8
:1035200020203D2020253038580A0000206578638F
:103530005F72657475726E20203D202025303858EA
:103540000A00000020747261705F706320203D20CB
:1035500020253038580A000020636F6E74726F6C3B
:1035600020203D2020253038580A000010B50346A1
:103570000020084808E004682CB9036041608260BC
:103580000024C46010BD1030024C8034A042F2D33D
:1035900000BFF7E7BC03002030B504460D4600220B
:1035A00029462046FFF7E2FF30BD00B970470021F1
:1035B000016041608160C16000BFF7E710B5002481
:1035C0000A4C0EE0E06858B1206848B12068804796
:1035D000E068401EE060A06810B92046FFF7E5FFF4
:1035E0001034024880308442ECD310BDBC0300206C
:1035F0000B480FE0016861B1416839B9C168491CE5
:10360000C160816829B18168416002E04168491E5A
:1036100041601030024980318842EBD3704700008E
:10362000BC03002070B5044638480068401C374988
:1036300008603748006818B136480068002849D14A
:10364000214635A000F00EF939A0616C00F00AF9AE
:103650003BA0216C00F006F93DA0E16B00F002F9FF
:103660003FA0A16A00F0FEF841A0616800F0FAF8FE
:1036700045A0216800F0F6F8206C10F8021C48A064
:1036800000F0F0F8207800F0010018B14AA000F036
:10369000E9F802E04CA000F0E5F8207900F008001D
:1036A00018B14DA000F0DEF802E04FA000F0DAF80B
:1036B000207900F0040018B14FA000F0D3F802E028
:1036C0004FA000F0CFF811480068401E0F49086075
:1036D000204670BD0E48006804600E48006805680A
:1036E0000C4800684069401C0A490968486100208C
:1036F00008490968C8610748006805490860034827
:103700000068401E014908602846E2E724000020C6
:103710001400002018000020537461636B2066724F
:10372000616D65206F6E20253038583A0D0A000013
:10373000207850535220093D2020253038580A0067
:1037400020504320093D2020253038580A00000031
:10375000204C5220093D2020253038580A00000016
:1037600020523020093D2020253038580A00000022
:10377000204558435F52455455524E203D20202548
:103780003038580A0000000020434F4E54524F4C2E
:10379000200920203D2020253038580A0000000054
:1037A00020535643204E4F200920203D2020253015
:1037B00038580D0A0000000050726976696C656423
:1037C0006765640D0A000000556E70726976696C59
:1037D00065646765640D0A00746872656164206DD4
:1037E0006F64650D0A00000048616E646C657220AC
:1037F0006D6F64650D0A00005053500D0A00000003
:103800004D53500D0000000010B504460E480068EE
:10381000002800DD10BD1CB10C480068844200D1B6
:10382000F8E71CB1A06908B1206A08B100F012F8ED
:103830000648006818B9064800680449086004484A
:10384000046000DF00BFE5E7240000201400002032
:103850001800002010B5FFF7EFFC0446FFF7D4FF77
:1038600010BD00000FB438B505A800904FF480716A
:103870000948009B049AFEF785FC0446002C04DDF1
:103880002146054800F00AF8044600200090204632
:1038900038BC5DF814FB00000C01002070B5064632
:1038A0000C46002503E0705DFFF754F96D1CA5423E
:1038B000F9DB204670BD10B5FFF736F910BD0000EA
:1038C00070B586B0FFF730F978B1FFF715F9044607
:1038D000164817490968445415480068401C1449A3
:1038E000086021461348FFF799FA0D2C1BD101AA55
:1038F0000F4801680D48FFF7D9FC0646002501A9CD
:103900003046FFF7B5FB03E00020084948556D1C21
:10391000202DF9DB00200649086007480068401C9C
:103920000549086000BF06B070BD00008C03002090
:10393000E80000207C030020E000002010B505E036
:103940000748FFF745FA0446FFF704F9FFF71AF9AD
:1039500020B10348FFF72AFA0028F1D010BD00007B
:103960007C03002010B5FFF70DF910BD000000002A
:10397000000000000102030406070809000000001F
:1039800001020304A4390008000000200C0100001B
:10399000E8210008B03A00080C010020F40B0000F8
:1039A000F8210008000000001000000001000000E5
:1039B0000024F400000000000000000000000000EF
:1039C00000000000000000000000000000000000F7
:1039D0000020024000020000000000000000000083
:1039E0000014024000080000000000000000000079
:1039F000000802400020000000000000000000005D
:103A00000000024001000000000000000000000073
:103A100000140240800000000100000000000000CF
:103A2000001402400001000001000000000000003E
:103A3000001402400002000001000000000000002D
:103A4000001402400004000001000000000000001B
:103A500000140240400000000100000000000000CF
:103A60000100000000000000000000000000000055
:103A70000000000000000000000000000000000046
:103A80000000000000000000000000000000000036
:103A90000000000000000000000000000000000026
:103AA0000000000000000000000000000000000016
:040000050800018965
:00000001FF
